:020000040800F2
:100000000080012019190008691900086919000801
:100010006919000869190008691900080000000042
:100020000000000000000000000000006919000846
:10003000691900080000000069190008C1180008CB
:100040006919000869190008691900086919000888
:100050006919000869190008691900086919000878
:100060006919000869190008691900086919000868
:100070006919000869190008691900086919000858
:1000800069190008691900086919000800000000D2
:1000900000000000000000000000000069190008D6
:1000A0006919000869190008691900086919000828
:1000B0006919000869190008691900086919000818
:1000C0006919000869190008691900086919000808
:1000D0006919000869190008691900080000000082
:1000E0006919000869190008691900080000000072
:1000F0000000000000000000000000006919000876
:100100000000000069190008691900086919000851
:1001100000000000000000000000000000000000DF
:1001200069190008691900086919000869190008A7
:100130006919000800000000000000000000000035
:100140000000000000000000000000006919000825
:100150006919000869190008691900086919000877
:10016000691900086919000800000000000000007B
:10017000000000000000000000000000000000007F
:1001800000000000691900080000000000000000E5
:0401900069190008E1
:1001940010B5054C237833B9044B13B10448AFF3BD
:1001A40000800123237010BD0C000020000000001B
:1001B400C419000808B5034B1BB103490348AFF346
:1001C400008008BD0000000010000020C4190008D1
:1001D40053B94AB9002908BF00281CBF4FF0FF31AA
:1001E4004FF0FF3000F072B9ADF1080C6DE904CEA8
:1001F40000F006F8DDF804E0DDE9022304B07047FE
:100204002DE9F047089E04468846002B4BD18A42CC
:10021400154667D9B2FA82F24AB1C2F1200701FA4F
:1002240002F320FA07F7954047EA030894404FEA9F
:10023400154E230CB8FBFEF71FFA85FC0EFB17883E
:1002440043EA084307FB0CF1994209D9EB1807F17B
:10025400FF3080F01B81994240F21881023F2B4409
:100264005B1AA4B2B3FBFEF00EFB103344EA034462
:1002740000FB0CFCA44509D92C1900F1FF3380F0D4
:100284000781A44540F2048102382C4440EA074027
:10029400A4EB0C0400271EB1D4400023C6E900439C
:1002A4003946BDE8F0878B4209D9002E00F0EB8077
:1002B4000027C6E9000138463946BDE8F087B3FA9D
:1002C40083F7002F47D18B4202D3824200F2FA8097
:1002D400841A61EB030301209846002EE0D0C6E99E
:1002E4000048DDE702B9FFDEB2FA82F2002A40F0EC
:1002F4008F80491B4FEA154E1FFA85F80127B1FB81
:10030400FEFC230C0EFB1C1143EA014308FB0CF119
:10031400994207D9EB180CF1FF3002D2994200F24E
:10032400CD808446591AA3B2B1FBFEF00EFB101423
:1003340043EA044408FB00F8A04507D92C1900F14E
:10034400FF3302D2A04500F2B6801846A4EB08049D
:1003540040EA0C409FE7C7F1200CBB4022FA0CFE98
:100364004EEA030E01FA07F420FA0CF521FA0CF315
:100374004FEA1E482543B3FBF8F92C0C08FB19334C
:100384001FFA8EFA44EA034309FB0AF49C4202FA78
:1003940007F200FA07F10BD91EEB030309F1FF3052
:1003A40080F087809C4240F28480A9F10209734462
:1003B4001B1BADB2B3FBF8F008FB103345EA034452
:1003C40000FB0AFAA24508D91EEB040400F1FF332E
:1003D4006BD2A24569D90238744440EA0940A0FBB3
:1003E4000289A4EB0A044C45C2464B4654D351D06F
:1003F400002E69D0B1EB0A0564EB030404FA0CFC8B
:10040400FD40FC404CEA0505C6E90054002747E7D7
:10041400C2F1200320FA03F7954001FA02F021FA11
:1004240003F34FEA154E3843010CB3FBFEF71FFAF2
:1004340085F80EFB173341EA034107FB08F38B42AF
:1004440004FA02F407D9691807F1FF3C2FD28B4252
:100454002DD9023F2944CB1A81B2B3FBFEF00EFB27
:10046400103341EA034100FB08F38B4207D96918B2
:1004740000F1FF3C17D28B4215D902382944C91A1E
:1004840040EA07473BE73746304609E70746E7E6D1
:100494001846FBE64145ABD2B8EB020A69EB0E0203
:1004A40001381346A4E76046E9E7184695E767462E
:1004B400D1E781467CE702382C4447E7ACF1020CD3
:1004C4002B442FE7384608E73746E9E6704700BF74
:1004D40010B504460E4B18784FF47A73B3FBF0F35F
:1004E4000C4A1068B0FBF3F000F09CF868B90F2CCC
:1004F40001D901200AE0002221464FF0FF3000F02C
:100504005DF8034B5C60002000E0012010BD00BFDB
:10051400000000200800002008B50B4B1A6842F4C4
:1005240000721A601A6842F480621A601A6842F40F
:1005340080721A60032000F02FF80020FFF7C8FF34
:1005440001F028F9002008BD003C0240034A11686C
:10055400034B1B780B441360704700BF2800002036
:1005640000000020014B1868704700BF28000020DD
:1005740038B50446FFF7F6FF0546B4F1FF3F02D055
:10058400044B1B781C44FFF7EDFF401BA042FAD339
:1005940038BD00BF00000020074AD36823F4E0639D
:1005A4001B041B0C000200F4E060184340F0BF6021
:1005B40040F40030D060704700ED00E030B4174BD9
:1005C400DB68C3F30223C3F10704042C28BF04240B
:1005D4001D1D062D18D9033B4FF0FF3505FA04F411
:1005E40021EA0401994005FA03F322EA03031943BB
:1005F40000280BDB0901C9B200F1604000F561403D
:1006040080F8001330BC70470023E5E700F00F00CA
:100614000901C9B2024B1954F4E700BF00ED00E030
:1006240014ED00E00138B0F1807F0AD2064B586027
:10063400064AF02182F823100020986007221A60ED
:1006440070470120704700BF10E000E000ED00E0BB
:10065400042805D0054A136823F004031360704787
:10066400024A136843F004031360704710E000E08B
:10067400704708B5FFF7FCFF08BD000000230F2BEF
:1006840000F2C580F0B482B039E0042200E0002218
:10069400B2403A4302345E4E46F824205D4A146860
:1006A400EA4302EA04064F6817F4803F01D045EAA2
:1006B4000406584C2660646802EA04064F6817F47E
:1006C400003F01D045EA0406524C6660A46802EA81
:1006D40004064F6817F4801F01D045EA04064D4C08
:1006E400A660E46822404E6816F4001F01D045EA73
:1006F4000402484CE26001330F2B00F28580012292
:100704009A400C6804EA0205AA42F4D14C68022C0F
:1007140001D0122C10D1DE08083650F826C003F0A0
:100724000704A7000F24BC402CEA040C0C69BC404D
:1007340044EA0C0440F8264004685F000326BE40E7
:10074400F64306EA040C4C6804F00304BC4044EA93
:100754000C0404604C6804F1FF3CBCF1010F03D9A4
:10076400112C01D0122C10D1846806EA040CCC6838
:10077400BC4044EA0C048460446824EA02024C68E5
:10078400C4F300149C4014434460C26816408A6851
:10079400BA403243C2604A6812F0805FABD0002294
:1007A40001921D4A546C44F480445464526C02F423
:1007B40080420192019A9C08A61C154A52F82670A0
:1007C40003F0030296000F22B24027EA0207134AFD
:1007D40090423FF45CAF02F5806290420ED002F585
:1007E400806290420CD002F5806290420AD002F5F9
:1007F400806290423FF449AF072249E7012247E76C
:10080400022245E7032243E702B0F0BC7047704779
:1008140000380140003C0140003802400000024022
:1008240012B9090481617047816170474369594075
:1008340041617047002800F0BB8170B582B0044666
:10084400036813F0010F3BD0A74B9B6803F00C0324
:10085400042B2CD0A44B9B6803F00C03082B21D051
:100864006368B3F5803F4FD0B3F5A02F52D09E4BB1
:100874001A6822F480321A601A6822F480221A60FC
:100884006368002B50D0FFF76DFE0546964B1B683E
:1008940013F4003F14D1FFF765FE401B6428F5D91B
:1008A40003208AE1904B5B6813F4800FD8D08E4B01
:1008B4001B6813F4003F03D06368002B00F07A81B7
:1008C400236813F0020F55D0874B9B6813F00C0F6D
:1008D4003ED0854B9B6803F00C03082B33D0E368B0
:1008E400002B68D0814B01221A60FFF73BFE0546BE
:1008F4007D4B1B6813F0020F54D1FFF733FE401BEE
:100904000228F5D9032058E1774A136843F4803369
:100914001360B5E7744B1A6842F480221A601A68AF
:1009240042F480321A60ABE7FFF71CFE05466E4BBB
:100934001B6813F4003FC3D0FFF714FE401B642868
:10094400F5D9032039E1684B5B6813F4800FC6D1F5
:10095400654B1B6813F0020F04D0E368012B01D030
:1009640001202AE1604A136823F0F803216943EA6D
:10097400C1031360236813F0080F40D0636963B3A5
:100984005B4B01221A60FFF7EDFD0546564B5B6F8A
:1009940013F0020F33D1FFF7E5FD401B0228F5D910
:1009A40003200AE1504A136823F0F803216943EA5B
:1009B400C1031360DEE74D4B00221A60FFF7D2FD3E
:1009C4000546494B1B6813F0020FD3D0FFF7CAFD4D
:1009D400401B0228F5D90320EFE0454B00221A60A2
:1009E400FFF7C0FD0546404B5B6F13F0020F06D0C6
:1009F400FFF7B8FD401B0228F5D90320DDE023688A
:100A040013F0040F79D0384B1B6C13F0805F33D193
:100A140000230193344B1A6C42F080521A641B6C0D
:100A240003F080530193019B0125324B1B6813F49F
:100A3400807F23D0A368012B34D0052B38D02A4BD8
:100A44001A6F22F001021A671A6F22F004021A6761
:100A5400A368002B36D0FFF785FD0646224B1B6F9B
:100A640013F0020F48D1FFF77DFD801B41F288335C
:100A74009842F3D90320A0E00025D6E71D4A136865
:100A840043F480731360FFF76DFD0646194B1B6832
:100A940013F4807FCED1FFF765FD801B0228F5D9C2
:100AA40003208AE0104A136F43F001031367CFE772
:100AB4000D4B1A6F42F004021A671A6F42F00102DA
:100AC4001A67C5E7FFF74EFD0646074B1B6F13F089
:100AD400020F11D0FFF746FD801B41F28833984284
:100AE400F3D9032069E000BF003802400000474208
:100AF400800E474200700040E5B9A369002B5BD02B
:100B0400304A926802F00C02082A58D0022B17D0FF
:100B14002D4B00221A60FFF725FD0446294B1B6864
:100B240013F0007F42D0FFF71DFD001B0228F5D90A
:100B3400032042E0234A136C23F080531364DCE760
:100B4400214B00221A60FFF70DFD05461D4B1B6863
:100B540013F0007F06D0FFF705FD401B0228F5D9EE
:100B640003202AE0E369226A1343626A43EA821398
:100B7400A26A5208013A43EA0243E26A43EA026380
:100B8400104A5360104B01221A60FFF7EBFC044635
:100B94000C4B1B6813F0007F06D1FFF7E3FC001B2E
:100BA4000228F5D9032008E0002006E0002004E034
:100BB40001207047012000E0002002B070BD012038
:100BC400FBE700BF0038024060004742324B9B689D
:100BD40003F00C03042B5CD0082B01D02F48704782
:100BE4002DE9F04B2C4B5A6802F03F025B6813F47A
:100BF400800F2BD0284B5B68C3F388131E46002755
:100C04005C010025E41A65EB0705A90141EA94613A
:100C1400A001001B61EB0501CB0043EA5073C40043
:100C2400A01943EB07014B0243EAD0534402204688
:100C340019460023FFF7CCFA174B5B68C3F3014353
:100C440001335B00B0FBF3F0BDE8F08B124B5B6843
:100C5400C3F388131E4600275C010025E41A65EBE4
:100C64000705A90141EA9461A001001B61EB05019C
:100C7400CB0043EA5073C400A01943EB07018B0275
:100C840043EA90538402204619460023FFF7A0FA52
:100C9400D2E70348704700BF003802400024F40044
:100CA40000127A00002800F09D8070B504464F4B76
:100CB4001B6803F00F038B4209D2CBB24B4A13706B
:100CC400136803F00F038B4201D0012070BD236829
:100CD40013F0020F17D013F0040F04D0444A9368A2
:100CE40043F4E0539360236813F0080F04D0404AA0
:100CF400936843F4604393603D4A936823F0F003A0
:100D0400A068034393600D46236813F0010F32D0AB
:100D14006368012B21D09A1E012A25D9344A12680E
:100D240012F0020F60D032498A6822F003021343A2
:100D34008B60FFF717FC06462D4B9B6803F00C03F2
:100D44006268B3EB820F16D0FFF70CFC801B41F2F4
:100D540088339842F0D90320B8E7254A126812F480
:100D6400003FE0D10120B1E7214A126812F0007F70
:100D7400D9D10120AAE71D4B1B6803F00F03AB4236
:100D840009D9EAB2194B1A701B6803F00F03AB427E
:100D940001D001209AE7236813F0040F06D0144A07
:100DA400936823F4E053E1680B439360236813F0E2
:100DB400080F07D00E4A936823F46043216943EA7D
:100DC400C1039360FFF702FF094B9B68C3F303134E
:100DD400084AD35CD840084B18600020FFF778FB22
:100DE400002073E70120704701206FE7003C0240B8
:100DF40000380240DC19000808000020014B186884
:100E0400704700BF0800002008B5FFF7F7FF044B48
:100E14009B68C3F38223034AD35CD84008BD00BF58
:100E240000380240EC19000808B5FFF7E7FF044B4F
:100E34009B68C3F34233034AD35CD84008BD00BF68
:100E440000380240EC1900082DE9F8430446016813
:100E54000A6922F44052C36813430B610168CA68EB
:100E640022F4164222F00C0283680069034360698D
:100E74000343E06903431343CB6021684A6922F4C6
:100E84004072A36913434B61E369B3F5004F60D02B
:100E94002368B84A934200F0148102F580629342B9
:100EA40000F00F81FFF7B0FF00EB800000EB800043
:100EB4006568AD00B0FBF5F5AF4FA7FB05356D09CF
:100EC4002E01FFF7A1FF00EB800000EB80006568B6
:100ED400AD00B0FBF5F9FFF797FF00EB800000EBE6
:100EE40080006568AD00B0FBF5F5A7FB05356D091D
:100EF4004FF0640808FB15952D013235A7FB053525
:100F04006D0905F0F0053544FFF77EFF00EB800026
:100F140000EB80006668B600B0FBF6F6FFF774FFDE
:100F240000EB800000EB800063689B00B0FBF3F0F3
:100F3400A7FB0030400908FB10684FEA081808F1C5
:100F44003208A7FB0837C7F3431723682F449F6071
:100F54000DE12368874A93425BD002F58062934295
:100F640057D0FFF751FF00EB800000EB800065686D
:100F74006D00B0FBF5F5804FA7FB05356D092E011B
:100F8400FFF742FF00EB800000EB800065686D0016
:100F9400B0FBF5F9FFF738FF00EB800000EB8000B1
:100FA40065686D00B0FBF5F5A7FB05356D094FF0DD
:100FB400640808FB1595ED003235A7FB05356D096E
:100FC4006D0005F4F8753544FFF71EFF00EB800053
:100FD40000EB800066687600B0FBF6F6FFF714FFBE
:100FE40000EB800000EB800063685B00B0FBF3F370
:100FF400A7FB03235B0908FB13684FEAC80808F141
:101004003208A7FB0837C7F3421723682F449F60B1
:10101400ADE0FFF709FF00EB800000EB800065689E
:101024006D00B0FBF5F5544FA7FB05356D092E0196
:10103400FFF7FAFE00EB800000EB800065686D00AE
:10104400B0FBF5F9FFF7F0FE00EB800000EB800049
:1010540065686D00B0FBF5F5A7FB05356D094FF02C
:10106400640808FB1595ED003235A7FB05356D09BD
:101074006D0005F4F8753544FFF7D6FE00EB8000EB
:1010840000EB800066687600B0FBF6F6FFF7CCFE56
:1010940000EB800000EB800063685B00B0FBF3F3BF
:1010A400A7FB03235B0908FB13684FEAC80808F190
:1010B4003208A7FB0837C7F3421723682F449F6001
:1010C40055E0FFF7B1FE00EB800000EB800065689F
:1010D400AD00B0FBF5F5284FA7FB05356D092E01D2
:1010E400FFF7A2FE00EB800000EB80006568AD0016
:1010F400B0FBF5F9FFF798FE00EB800000EB8000F1
:101104006568AD00B0FBF5F5A7FB05356D094FF03B
:10111400640808FB15952D013235A7FB05356D09CB
:1011240005F0F0053544FFF77FFE00EB800000EB8F
:1011340080006668B600B0FBF6F6FFF775FE00EBBC
:10114400800000EB800063689B00B0FBF3F0A7FB1A
:101154000030400908FB10684FEA081808F132080B
:10116400A7FB0837C7F3431723682F449F60BDE8E4
:10117400F88300BF001001401F85EB512DE9F041B9
:1011840005460F4616469846069C2B681B6837EAA8
:1011940003030CBF01230023B3421DD1B4F1FF3F6D
:1011A400F3D02CB1FFF7DEF9A0EB0800A042ECD994
:1011B4002A68D36823F4D073D3602A68536923F070
:1011C40001035361202385F8393085F83A30002330
:1011D40085F83830032000E00020BDE8F08158B3E2
:1011E40010B5044690F839300BB3242384F8393011
:1011F4002268D36823F40053D3602046FFF724FE0B
:101204002268136923F4904313612268536923F01D
:101214002A0353612268D36843F40053D360002047
:10122400E063202384F8393084F83A3010BD80F824
:10123400383000F0F9FAD8E7012070472DE9F04181
:1012440082B01E4690F83930DBB2202B55D10446CB
:101254000D469046002955D0002A55D090F83830D4
:10126400012B53D0012380F838300023C36321239A
:1012740080F83930FFF776F90746A4F82480A4F8FB
:10128400268010E000963B46002280212046FFF78E
:1012940075FF00283CD12B882268C3F308035360F0
:1012A4002369C3B90235E38C9BB2B3B1E38C013B30
:1012B4009BB2E384A368B3F5805FE3D000963B461A
:1012C400002280212046FFF759FF18BB2A782368A3
:1012D4005A600135E7E70135E5E700963B46002211
:1012E40040212046FFF74AFF0346A8B9202284F88C
:1012F4003920002284F8382000E00223184602B086
:10130400BDE8F0810123F9E70123F7E70223F5E7BC
:101314000323F3E70323F1E70323EFE72DE9F04188
:1013240082B01E4690F83A30DBB2202B5AD10446E4
:101334000D469046002959D0002A59D090F83830EB
:10134400012B57D0012380F838300023C3632223B4
:1013540080F83A30FFF706F90746A4F82C80A4F881
:101364002E801DE000963B46002220212046FFF7F8
:1013740005FF002840D1236933B923685B68C3F3B0
:10138400080325F8023B0BE023685B68DBB225F811
:10139400013B05E023685B6803F07F032B70013594
:1013A400E38D9BB2BBB1E38D013B9BB2E385A368A4
:1013B400B3F5805FD6D000963B460022202120461C
:1013C400FFF7DCFED0B92369002BE3D123685B6807
:1013D4002B700135E4E7202384F83A30002084F8A8
:1013E400380000E0022002B0BDE8F0810120FAE7F5
:1013F4000120F8E70220F6E70320F4E70320F2E7F0
:1014040030B58BB000240194214B1A6B42F00402D6
:101414001A631A6B02F004020192019A02941A6B85
:1014240042F080021A631A6B02F080020292029A5E
:1014340003941A6B42F001021A631A6B02F0010260
:101444000392039A04941A6B42F002021A631B6B10
:1014540003F002030493049B0E4D224620212846E8
:10146400FFF7DEF94FF4005305930B4B06930794F3
:1014740005A90A48FFF702F92023059301230693DF
:101484000794089405A92846FFF7F8F80BB030BD77
:101494000038024000000240000021100008024011
:1014A400FEE7000008B50B480B4B03604FF4E13333
:1014B400436000238360C36003610C224261836143
:1014C400C361FFF78CFE00B908BDF7210348FFF79D
:1014D400E7FF00BF6C00002000440040F41900083E
:1014E40008B50B480B4B03604FF4E1334360002312
:1014F4008360C36003610C2242618361C361FFF7AF
:101504006EFE00B908BDE4210348FFF7C9FF00BF20
:101514002C00002000100140F419000800B595B01B
:10152400002201922A4B196C41F0805119641B6C02
:1015340003F080530193019B029226490B6823F424
:10154400404343F400430B600B6803F440430293AD
:10155400029B0221089101230B9310230C930E91FB
:101564000F9210934FF4A87311930423129307233B
:10157400139308A8FFF75EF908BB0F230393022116
:101584000491002305934FF480520692079303A815
:10159400FFF788FBB8B9FFF731FC0F4BA3FB003012
:1015A4008009FFF73FF80420FFF752F800221146A4
:1015B4004FF0FF30FFF702F815B05DF804FBB921D6
:1015C4000648FFF76DFFC7210448FFF769FF00BF16
:1015D4000038024000700040D34D6210F419000836
:1015E40008B5FEF799FFFFF799FFFFF709FFFFF72B
:1015F40059FFFFF775FF00F055F8FEE72DE9F843B2
:1016040000AF81460E46144602F1030802F10A03B4
:1016140003F4FC73ADEB030D6D4640F6B830FEF7F2
:10162400A7FF8DF80040002304E009EB0302013317
:101634001278EA54012BF8DD002303E0DA1CF15C94
:10164400A95401339C42F9DC6423424629460348E9
:10165400FFF7F4FDBD46BDE8F88300BF6C00002031
:1016640010B582B0044603E020210C48FFF7DEF8F1
:101674004FF4FA7301220DF107010948FFF74EFEFA
:101684000028F1D164239DF8072021460448FFF780
:1016940045FE9DF8070002B010BD00BF00000240E7
:1016A4006C000020F0B5ADF5037D384D01222021FA
:1016B4002846FFF7B5F842A8FFF7D2FF06460246D0
:1016C4000DF5857142A8FFF799FF314C6423B2B23E
:1016D40042A92046FFF7B2FD4FF48076324600213E
:1016E40042A800F065F942A8FFF7BAFF0746024690
:1016F4000DF5857142A8FFF781FF6423BAB242A9B0
:101704002046FFF79BFD3246002142A800F050F925
:1017140042A8FFF7A5FF064602460DF5857142A8CB
:10172400FFF76CFF6423B2B242A92046FFF786FD9F
:10173400012220212846FFF773F805E0A21CD2B24B
:1017440001A941A8FFF75AFFFE22792101A800F060
:101754002FF96423022241A90D48FFF7DFFD002879
:10176400F7D19DF80541002220210848FFF758F8D9
:101774006423224601A90648FFF7D0FD0028DDD1E5
:10178400012220210148FFF74BF8D7E7000002406F
:101794002C00002010B582B000240094214B5A6C18
:1017A40042F480425A645A6C02F480420092009AD5
:1017B40001941A6C42F080521A641B6C03F080533B
:1017C4000193019B0720FEF7E7FE224621466FF0B6
:1017D4000B00FEF7F3FE224621466FF00A00FEF7E7
:1017E400EDFE224621466FF00900FEF7E7FE224691
:1017F40021466FF00400FEF7E1FE224621466FF019
:101804000300FEF7DBFE224621466FF00100FEF7DF
:10181400D5FE224621464FF0FF30FEF7CFFE02B040
:1018240010BD00BF0038024000B589B003681F4AEC
:10183400934205D01E4A93421ED009B05DF804FBC2
:10184400002301931B4B5A6C42F010025A645B6CE8
:1018540003F010030193019B4FF4C063039302232D
:10186400049301230593032306930723079303A9F2
:101874001148FEF703FFE0E70023029302F5FA3272
:10188400116C41F400311164126C02F400320292C2
:10189400029A0C22039202220492059306930723D0
:1018A400079303A90448FEF7E9FEC6E700100140C8
:1018B40000440040003802400000024008B5FEF732
:1018C40045FEFEF7D6FE08BD0F49D1F8883043F433
:1018D4007003C1F888300D4B1A6842F001021A6097
:1018E400002098601A6822F0847222F480321A6010
:1018F400074A5A601A6822F480221A60D8604FF0AE
:1019040000638B60704700BF00ED00E000380240C8
:1019140010300024DFF834D0002103E00C4B5B5876
:10192400435004310B480C4B42189A42F6D30B4AED
:1019340002E0002342F8043B094B9A42F9D3FFF733
:10194400C3FF00F011F8FFF74BFE70470080012041
:10195400141A0008000000200C0000200C000020D5
:10196400AC000020FEE7000070B50D4E0D4CA41B2A
:10197400A4100025A54209D10B4E0C4C00F020F810
:10198400A41BA4100025A54205D170BD56F825302E
:1019940098470135EEE756F8253098470135F2E7C8
:1019A4000C1A00080C1A00080C1A0008101A000877
:1019B40002440346934200D1704703F8011BF9E740
:1019C400F8B500BFF8BC08BC9E467047F8B500BF28
:0819D400F8BC08BC9E467047F8
:1019DC0000000000000000000102030406070809D3
:1019EC0000000000010203042E2E2F5372632F6D92
:0819FC0061696E2E630000001A
:081A040000E8FF7F0100000073
:041A0C00B901000814
:041A10009501000834
:0C1A140001000000100000000024F4009D
:0400000508001919BD
:00000001FF
